:100000000C9446000C9465000C9465000C946500FB
:100010000C9465000C9465000C9465000C946500CC
:100020000C9465000C9465000C9465000C946500BC
:100030000C9465000C948D010C9465000C94650083
:100040000C9465000C9465000C9465000C9465009C
:100050000C9465000C9465000C9465000C9465008C
:100060000C9465000C9465000C9465000C9465007C
:100070000C9465000C9465000C9465000C9465006C
:100080000C9465000C9465000C94650011241FBE4F
:10009000CFEFD0E4DEBFCDBF11E0A0E0B1E0ECEDEA
:1000A000F9E000E00BBF02C007900D92A831B10744
:1000B000D9F721E0A8E1B1E001C01D92AC33B2074D
:1000C000E1F70E9421040C94EC040C940000CF93FF
:1000D000DF9300D01F92CDB7DEB789837B836A831D
:1000E00089818A3031F48A819B81BC018DE00E9434
:1000F000670080EC90E0FC018081882F90E08072A6
:100100009927892BB1F386EC90E02981FC012083AB
:1001100080E090E00F900F900F90DF91CF910895C5
:10012000CF93DF93CDB7DEB781E890E02BE0FC0101
:10013000208388E890E02DE730E0FC0131832083C4
:100140008FE690E022E0FC01208384E890E022E04A
:1001500030E0FC013183208380910E0190910F01EA
:10016000A0911001B09111018093190190931A018F
:10017000A0931B01B0931C018FE590E02FE530E0C8
:10018000F90120812068FC0120830000DF91CF91DC
:100190000895CF93DF93CDB7DEB781E890E0FC01FF
:1001A00010820000DF91CF9108950F931F93CF939A
:1001B000DF931F92CDB7DEB71982A4C08981282FA3
:1001C00030E0C901880F991F820F931F880F991F74
:1001D000880F991F865D9E4FFC01208131814281ED
:1001E00053818981682F70E0CB01880F991F860F9A
:1001F000971F880F991F880F991F8A5D9E4FFC01DA
:1002000080819181A281B381281739074A075B0752
:1002100008F449C08981082F10E08981282F30E037
:10022000C901880F991F820F931F880F991F880F8C
:10023000991F825D9E4FFC01408151818981282F49
:1002400030E0C901880F991F820F931F880F991FF3
:10025000880F991F8C5D9E4FFC0180819181FA016E
:1002600009959C01C801880F991F800F911F880F65
:10027000991F880F991F8C5D9E4FFC01318320834D
:100280008981282F30E0C901880F991F820F931FA1
:10029000880F991F880F991F865D9E4FFC01108261
:1002A0001182128213828981682F70E08981282F40
:1002B00030E0C901880F991F820F931F880F991F83
:1002C000880F991F865D9E4FFC0180819181A281DC
:1002D000B3819C01AD012F5F3F4F4F4F5F4FCB016B
:1002E000880F991F860F971F880F991F880F991FD6
:1002F000865D9E4FFC012083318342835383898135
:100300008F5F89838981823008F458CF00000F9075
:10031000DF91CF911F910F9108951F920F9200903E
:100320005F000F92112400905B000F922F933F9378
:100330004F935F936F937F938F939F93AF93BF93ED
:10034000EF93FF93CF93DF93CDB7DEB78091190181
:1003500090911A01A0911B01B0911C010197A10974
:10036000B1098093190190931A01A0931B01B093D6
:100370001C018091190190911A01A0911B01B0916B
:100380001C01892B8A2B8B2B91F40E94D500809124
:100390000E0190910F01A0911001B0911101809375
:1003A000190190931A01A0931B01B0931C01000046
:1003B000DF91CF91FF91EF91BF91AF919F918F917D
:1003C0007F916F915F914F913F912F910F9000928C
:1003D0005B000F9000925F000F901F901895CF93D5
:1003E000DF9300D000D0CDB7DEB769837A838B83EB
:1003F0009C8389819A81AB81BC8180930E0190930B
:100400000F01A0931001B093110180910E01909102
:100410000F01A0911001B0911101809319019093E7
:100420001A01A0931B01B0931C0100000F900F90C4
:100430000F900F90DF91CF910895CF93DF9300D06D
:10044000CDB7DEB79A83898380E290E0FC0180819A
:10045000882F90E08170992721E0892B09F020E016
:10046000822F80931D0180E290E0FC018081882F23
:1004700090E08095909595958795817080931E0169
:1004800089819A81892BF9F480912101882F90E04C
:100490008E5E9E4FFC01808180932201809121011C
:1004A000882F90E08B5E9E4FFC018081809323011A
:1004B000809121018F5F8093210180912101833000
:1004C00011F41092210188E290E020912201FC01B8
:1004D00020838BE290E020912301FC01208389811D
:1004E0009A810F900F90DF91CF910895CF93DF9372
:1004F00000D0CDB7DEB79A83898380E290E0FC011B
:100500008081882F90E08095909595958795959519
:100510008795817080931F0180E290E0FC018081CB
:10052000882F90E0809590959595879595958795DE
:100530009595879581708093200189819A81823079
:10054000910509F4F3C08330910534F4009761F00C
:10055000019709F4BFC06EC18330910509F412C13F
:10056000049709F438C166C180911D01882341F1C7
:1005700080911E01882321F580911F01882301F5B8
:10058000809120018823E1F481E090E09A838983BF
:10059000809117018E3F09F49CC0809115018695CA
:1005A00080688093150180911601869580688093FC
:1005B000160180911701869580688093170189C084
:1005C00080911D01882329F580911E01882309F55A
:1005D00080911F018823E9F4809120018823C9F0CC
:1005E00082E090E09A838983809114018F3009F42E
:1005F00070C0809112018695809312018091130141
:10060000869580931301809114018695809314013F
:1006100060C080911D01882389F580911E01882387
:1006200069F180911F01882349F580912001882379
:1006300029F583E090E09A838983809115018F3EAC
:1006400009F447C080911501882F90E0880F991F09
:1006500081608093150180911601882F90E0880FAA
:10066000991F81608093160180911701882F90E077
:10067000880F991F8160809317012BC080911D0105
:10068000882321F580911E01882301F580911F01A7
:100690008823E1F0809120018823C1F484E090E078
:1006A0009A83898380911201803F99F08091120191
:1006B000880F8093120180911301880F809313019A
:1006C00080911401880F8093140103C01A8219824B
:1006D000B1C0B0C080911D01882389F080911E01B6
:1006E000882369F480911F01882349F480912001B7
:1006F000882329F481E090E09A83898394C08091D3
:100700001D01882309F08FC080911E01882309F004
:100710008AC080911F01882309F085C08091200143
:10072000882309F080C01A8219827DC080911D0142
:10073000882389F480911E01882369F480911F0128
:10074000882349F480912001882329F082E090E0F9
:100750009A8389836AC080911D01882309F065C04E
:1007600080911E01882309F060C080911F018823B9
:1007700009F05BC080912001882309F056C01A82DD
:10078000198253C080911D01882389F480911E0134
:10079000882369F080911F01882349F4809120010A
:1007A000882329F483E090E09A83898340C0809174
:1007B0001D01882309F03BC080911E018823B9F5F3
:1007C00080911F01882399F580912001882379F574
:1007D0001A8219822CC080911D01882389F480918E
:1007E0001E01882369F480911F01882349F08091BC
:1007F0002001882329F484E090E09A83898319C03A
:1008000080911D018823A9F480911E01882389F419
:1008100080911F01882369F480912001882349F485
:100820001A82198206C0000005C0000003C0000043
:1008300001C0000089819A810F900F90DF91CF91C4
:100840000895CF93DF931F92CDB7DEB781E290E09A
:10085000FC01108282E290E02FEFFC01208387E20E
:1008600090E02FEFFC01208388E290E0FC011082F1
:100870008AE290E02FEFFC0120838BE290E0FC0104
:10088000108219828981282F30E0C901880F991FB1
:10089000820F931F880F991F880F991F8C5D9E4FA1
:1008A000FC01118210828981282F30E0C901880F54
:1008B000991F820F931F880F991F880F991F9C0102
:1008C0002A5D3E4F81E090E0A0E0B0E0F901808336
:1008D0009183A283B3838981282F30E0C901880FD7
:1008E000991F820F931F880F991F880F991F865D8C
:1008F0009E4FFC0110821182128213828981282F5F
:1009000030E0C901880F991F820F931F880F991F2C
:10091000880F991F825D9E4F2DE132E0FC013183EB
:10092000208389818F5F89838981282F30E0C901E5
:10093000880F991F820F931F880F991F880F991F87
:100940008C5D9E4FFC01118210828981282F30E03E
:10095000C901880F991F820F931F880F991F880F55
:10096000991F9C012A5D3E4F81E090E0A0E0B0E03D
:10097000F90180839183A283B3838981282F30E09A
:10098000C901880F991F820F931F880F991F880F25
:10099000991F865D9E4FFC01108211821282138284
:1009A0008981282F30E0C901880F991F820F931F7A
:1009B000880F991F880F991F825D9E4F26E732E0AE
:1009C000FC013183208361E070E080E090E00E94D0
:0C09D000EF010E949000FFCFF894FFCFD1
:1009DC0000000002000000006700000000000100A1
:0809EC0000003C243CF7FBFD78
:00000001FF
